{
  "_format": "hh-sol-artifact-1",
  "contractName": "J832Protocol",
  "sourceName": "contracts/J832Protocol.sol",
  "abi": [
    {
      "anonymous": false,
      "inputs": [
        {
          "indexed": true,
          "internalType": "bytes32",
          "name": "resourceId",
          "type": "bytes32"
        },
        {
          "indexed": false,
          "internalType": "enum J832Protocol.ProposalType",
          "name": "proposalType",
          "type": "uint8"
        },
        {
          "indexed": false,
          "internalType": "address",
          "name": "candidate",
          "type": "address"
        },
        {
          "indexed": true,
          "internalType": "address",
          "name": "approver",
          "type": "address"
        },
        {
          "indexed": false,
          "internalType": "uint256",
          "name": "approvals",
          "type": "uint256"
        },
        {
          "indexed": false,
          "internalType": "uint256",
          "name": "totalAdmins",
          "type": "uint256"
        }
      ],
      "name": "AdminProposalApproved",
      "type": "event"
    },
    {
      "anonymous": false,
      "inputs": [
        {
          "indexed": true,
          "internalType": "bytes32",
          "name": "resourceId",
          "type": "bytes32"
        },
        {
          "indexed": false,
          "internalType": "enum J832Protocol.ProposalType",
          "name": "proposalType",
          "type": "uint8"
        },
        {
          "indexed": false,
          "internalType": "address",
          "name": "candidate",
          "type": "address"
        },
        {
          "indexed": true,
          "internalType": "address",
          "name": "proposer",
          "type": "address"
        }
      ],
      "name": "AdminProposalCreated",
      "type": "event"
    },
    {
      "anonymous": false,
      "inputs": [
        {
          "indexed": true,
          "internalType": "bytes32",
          "name": "resourceId",
          "type": "bytes32"
        },
        {
          "indexed": false,
          "internalType": "enum J832Protocol.ProposalType",
          "name": "proposalType",
          "type": "uint8"
        },
        {
          "indexed": false,
          "internalType": "address",
          "name": "candidate",
          "type": "address"
        }
      ],
      "name": "AdminProposalExecuted",
      "type": "event"
    },
    {
      "anonymous": false,
      "inputs": [
        {
          "indexed": true,
          "internalType": "bytes32",
          "name": "resourceId",
          "type": "bytes32"
        },
        {
          "indexed": false,
          "internalType": "uint256",
          "name": "version",
          "type": "uint256"
        },
        {
          "indexed": false,
          "internalType": "bytes32",
          "name": "dataHash",
          "type": "bytes32"
        },
        {
          "indexed": false,
          "internalType": "uint256",
          "name": "timestamp",
          "type": "uint256"
        },
        {
          "indexed": true,
          "internalType": "address",
          "name": "actor",
          "type": "address"
        },
        {
          "indexed": false,
          "internalType": "enum J832Protocol.ChangeType",
          "name": "changeType",
          "type": "uint8"
        }
      ],
      "name": "ChangeRegistered",
      "type": "event"
    },
    {
      "anonymous": false,
      "inputs": [
        {
          "indexed": true,
          "internalType": "bytes32",
          "name": "resourceId",
          "type": "bytes32"
        },
        {
          "indexed": true,
          "internalType": "address",
          "name": "actor",
          "type": "address"
        },
        {
          "indexed": false,
          "internalType": "uint256",
          "name": "timestamp",
          "type": "uint256"
        },
        {
          "indexed": false,
          "internalType": "bytes32",
          "name": "dataHash",
          "type": "bytes32"
        },
        {
          "indexed": false,
          "internalType": "string",
          "name": "reason",
          "type": "string"
        }
      ],
      "name": "DuplicateChangeAttempt",
      "type": "event"
    },
    {
      "anonymous": false,
      "inputs": [
        {
          "indexed": true,
          "internalType": "bytes32",
          "name": "resourceId",
          "type": "bytes32"
        },
        {
          "indexed": true,
          "internalType": "address",
          "name": "previousOwner",
          "type": "address"
        },
        {
          "indexed": true,
          "internalType": "address",
          "name": "newOwner",
          "type": "address"
        }
      ],
      "name": "OwnershipTransferred",
      "type": "event"
    },
    {
      "anonymous": false,
      "inputs": [
        {
          "indexed": true,
          "internalType": "bytes32",
          "name": "resourceId",
          "type": "bytes32"
        },
        {
          "indexed": false,
          "internalType": "bool",
          "name": "archived",
          "type": "bool"
        }
      ],
      "name": "ResourceArchived",
      "type": "event"
    },
    {
      "anonymous": false,
      "inputs": [
        {
          "indexed": true,
          "internalType": "bytes32",
          "name": "resourceId",
          "type": "bytes32"
        },
        {
          "indexed": true,
          "internalType": "address",
          "name": "account",
          "type": "address"
        }
      ],
      "name": "RoleGranted",
      "type": "event"
    },
    {
      "anonymous": false,
      "inputs": [
        {
          "indexed": true,
          "internalType": "bytes32",
          "name": "resourceId",
          "type": "bytes32"
        },
        {
          "indexed": true,
          "internalType": "address",
          "name": "account",
          "type": "address"
        }
      ],
      "name": "RoleRevoked",
      "type": "event"
    },
    {
      "anonymous": false,
      "inputs": [
        {
          "indexed": true,
          "internalType": "bytes32",
          "name": "resourceId",
          "type": "bytes32"
        },
        {
          "indexed": true,
          "internalType": "address",
          "name": "actor",
          "type": "address"
        },
        {
          "indexed": false,
          "internalType": "uint256",
          "name": "timestamp",
          "type": "uint256"
        },
        {
          "indexed": false,
          "internalType": "string",
          "name": "reason",
          "type": "string"
        }
      ],
      "name": "UnauthorizedAttempt",
      "type": "event"
    },
    {
      "inputs": [],
      "name": "ROLE_OPERATOR",
      "outputs": [
        {
          "internalType": "bytes32",
          "name": "",
          "type": "bytes32"
        }
      ],
      "stateMutability": "view",
      "type": "function"
    },
    {
      "inputs": [
        {
          "internalType": "bytes32",
          "name": "resourceId",
          "type": "bytes32"
        }
      ],
      "name": "approveAddAdmin",
      "outputs": [],
      "stateMutability": "nonpayable",
      "type": "function"
    },
    {
      "inputs": [
        {
          "internalType": "bytes32",
          "name": "resourceId",
          "type": "bytes32"
        }
      ],
      "name": "approveRemoveAdmin",
      "outputs": [],
      "stateMutability": "nonpayable",
      "type": "function"
    },
    {
      "inputs": [
        {
          "internalType": "bytes32",
          "name": "resourceId",
          "type": "bytes32"
        }
      ],
      "name": "approveTransferOwnership",
      "outputs": [],
      "stateMutability": "nonpayable",
      "type": "function"
    },
    {
      "inputs": [
        {
          "internalType": "bytes32",
          "name": "resourceId",
          "type": "bytes32"
        },
        {
          "internalType": "bool",
          "name": "enforceUniqueness",
          "type": "bool"
        }
      ],
      "name": "createResource",
      "outputs": [],
      "stateMutability": "nonpayable",
      "type": "function"
    },
    {
      "inputs": [
        {
          "internalType": "bytes32",
          "name": "resourceId",
          "type": "bytes32"
        }
      ],
      "name": "getAdminCount",
      "outputs": [
        {
          "internalType": "uint256",
          "name": "",
          "type": "uint256"
        }
      ],
      "stateMutability": "view",
      "type": "function"
    },
    {
      "inputs": [
        {
          "internalType": "bytes32",
          "name": "resourceId",
          "type": "bytes32"
        }
      ],
      "name": "getAdmins",
      "outputs": [
        {
          "internalType": "address[]",
          "name": "",
          "type": "address[]"
        }
      ],
      "stateMutability": "view",
      "type": "function"
    },
    {
      "inputs": [
        {
          "internalType": "bytes32",
          "name": "resourceId",
          "type": "bytes32"
        },
        {
          "internalType": "uint256",
          "name": "start",
          "type": "uint256"
        },
        {
          "internalType": "uint256",
          "name": "count",
          "type": "uint256"
        }
      ],
      "name": "getHistoryRange",
      "outputs": [
        {
          "components": [
            {
              "internalType": "uint256",
              "name": "version",
              "type": "uint256"
            },
            {
              "internalType": "bytes32",
              "name": "dataHash",
              "type": "bytes32"
            },
            {
              "internalType": "uint256",
              "name": "timestamp",
              "type": "uint256"
            },
            {
              "internalType": "address",
              "name": "actor",
              "type": "address"
            },
            {
              "internalType": "enum J832Protocol.ChangeType",
              "name": "changeType",
              "type": "uint8"
            }
          ],
          "internalType": "struct J832Protocol.Change[]",
          "name": "result",
          "type": "tuple[]"
        }
      ],
      "stateMutability": "view",
      "type": "function"
    },
    {
      "inputs": [
        {
          "internalType": "bytes32",
          "name": "resourceId",
          "type": "bytes32"
        }
      ],
      "name": "getLatestChange",
      "outputs": [
        {
          "components": [
            {
              "internalType": "uint256",
              "name": "version",
              "type": "uint256"
            },
            {
              "internalType": "bytes32",
              "name": "dataHash",
              "type": "bytes32"
            },
            {
              "internalType": "uint256",
              "name": "timestamp",
              "type": "uint256"
            },
            {
              "internalType": "address",
              "name": "actor",
              "type": "address"
            },
            {
              "internalType": "enum J832Protocol.ChangeType",
              "name": "changeType",
              "type": "uint8"
            }
          ],
          "internalType": "struct J832Protocol.Change",
          "name": "",
          "type": "tuple"
        }
      ],
      "stateMutability": "view",
      "type": "function"
    },
    {
      "inputs": [
        {
          "internalType": "bytes32",
          "name": "resourceId",
          "type": "bytes32"
        }
      ],
      "name": "getVersionCount",
      "outputs": [
        {
          "internalType": "uint256",
          "name": "",
          "type": "uint256"
        }
      ],
      "stateMutability": "view",
      "type": "function"
    },
    {
      "inputs": [
        {
          "internalType": "bytes32",
          "name": "",
          "type": "bytes32"
        },
        {
          "internalType": "address",
          "name": "",
          "type": "address"
        }
      ],
      "name": "isAdmin",
      "outputs": [
        {
          "internalType": "bool",
          "name": "",
          "type": "bool"
        }
      ],
      "stateMutability": "view",
      "type": "function"
    },
    {
      "inputs": [
        {
          "internalType": "bytes32",
          "name": "",
          "type": "bytes32"
        },
        {
          "internalType": "address",
          "name": "",
          "type": "address"
        }
      ],
      "name": "isAuthorized",
      "outputs": [
        {
          "internalType": "bool",
          "name": "",
          "type": "bool"
        }
      ],
      "stateMutability": "view",
      "type": "function"
    },
    {
      "inputs": [
        {
          "internalType": "bytes32",
          "name": "",
          "type": "bytes32"
        },
        {
          "internalType": "bytes32",
          "name": "",
          "type": "bytes32"
        }
      ],
      "name": "isDataHashRegistered",
      "outputs": [
        {
          "internalType": "bool",
          "name": "",
          "type": "bool"
        }
      ],
      "stateMutability": "view",
      "type": "function"
    },
    {
      "inputs": [
        {
          "internalType": "bytes32",
          "name": "",
          "type": "bytes32"
        }
      ],
      "name": "isResourceActive",
      "outputs": [
        {
          "internalType": "bool",
          "name": "",
          "type": "bool"
        }
      ],
      "stateMutability": "view",
      "type": "function"
    },
    {
      "inputs": [
        {
          "internalType": "bytes32",
          "name": "resourceId",
          "type": "bytes32"
        }
      ],
      "name": "isUniquenessEnforced",
      "outputs": [
        {
          "internalType": "bool",
          "name": "",
          "type": "bool"
        }
      ],
      "stateMutability": "view",
      "type": "function"
    },
    {
      "inputs": [
        {
          "internalType": "bytes32",
          "name": "resourceId",
          "type": "bytes32"
        },
        {
          "internalType": "address",
          "name": "newAdmin",
          "type": "address"
        }
      ],
      "name": "proposeAddAdmin",
      "outputs": [],
      "stateMutability": "nonpayable",
      "type": "function"
    },
    {
      "inputs": [
        {
          "internalType": "bytes32",
          "name": "resourceId",
          "type": "bytes32"
        },
        {
          "internalType": "address",
          "name": "adminToRemove",
          "type": "address"
        }
      ],
      "name": "proposeRemoveAdmin",
      "outputs": [],
      "stateMutability": "nonpayable",
      "type": "function"
    },
    {
      "inputs": [
        {
          "internalType": "bytes32",
          "name": "resourceId",
          "type": "bytes32"
        },
        {
          "internalType": "address",
          "name": "newOwner",
          "type": "address"
        }
      ],
      "name": "proposeTransferOwnership",
      "outputs": [],
      "stateMutability": "nonpayable",
      "type": "function"
    },
    {
      "inputs": [
        {
          "internalType": "bytes32",
          "name": "resourceId",
          "type": "bytes32"
        },
        {
          "internalType": "bytes32",
          "name": "dataHash",
          "type": "bytes32"
        },
        {
          "internalType": "enum J832Protocol.ChangeType",
          "name": "changeType",
          "type": "uint8"
        }
      ],
      "name": "registerChange",
      "outputs": [],
      "stateMutability": "nonpayable",
      "type": "function"
    },
    {
      "inputs": [
        {
          "internalType": "bytes32",
          "name": "",
          "type": "bytes32"
        }
      ],
      "name": "resourceConfig",
      "outputs": [
        {
          "internalType": "address",
          "name": "owner",
          "type": "address"
        },
        {
          "internalType": "bool",
          "name": "enforceUniqueness",
          "type": "bool"
        }
      ],
      "stateMutability": "view",
      "type": "function"
    },
    {
      "inputs": [
        {
          "internalType": "bytes32",
          "name": "resourceId",
          "type": "bytes32"
        },
        {
          "internalType": "bool",
          "name": "active",
          "type": "bool"
        }
      ],
      "name": "setResourceActiveStatus",
      "outputs": [],
      "stateMutability": "nonpayable",
      "type": "function"
    },
    {
      "inputs": [
        {
          "internalType": "bytes32",
          "name": "resourceId",
          "type": "bytes32"
        },
        {
          "internalType": "bool",
          "name": "enforceUniqueness",
          "type": "bool"
        }
      ],
      "name": "setUniqueness",
      "outputs": [],
      "stateMutability": "nonpayable",
      "type": "function"
    }
  ],
  "bytecode": "0x6080604052348015600f57600080fd5b506144748061001f6000396000f3fe608060405234801561001057600080fd5b50600436106101425760003560e01c80637468d3d9116100b8578063951340411161007c57806395134041146103a8578063956db465146103c457806398a1b397146103f4578063b75dbb8e14610412578063de4920f414610442578063ff4d689d1461047257610142565b80637468d3d9146102e05780637b72aa63146102fc5780637c695eaa1461032c5780638496663b1461035c57806388f038371461037857610142565b806331a650e51161010a57806331a650e5146101fb5780633a84d64d146102175780633dffbc6d14610233578063433860bf146102635780635ce498ae14610293578063737cafbc146102c457610142565b80630291f06a146101475780630a6c27e014610163578063160304811461019357806317605376146101af578063196913a9146101cb575b600080fd5b610161600480360381019061015c91906132eb565b61048e565b005b61017d6004803603810190610178919061333e565b6108d8565b60405161018a9190613386565b60405180910390f35b6101ad60048036038101906101a891906133ff565b6108f8565b005b6101c960048036038101906101c4919061333e565b610c73565b005b6101e560048036038101906101e0919061333e565b6113b9565b6040516101f29190613386565b60405180910390f35b6102156004803603810190610210919061346b565b6113e6565b005b610231600480360381019061022c91906133ff565b611553565b005b61024d600480360381019061024891906134ab565b611954565b60405161025a9190613386565b60405180910390f35b61027d60048036038101906102789190613521565b611983565b60405161028a919061372f565b60405180910390f35b6102ad60048036038101906102a8919061333e565b611ba1565b6040516102bb929190613760565b60405180910390f35b6102de60048036038101906102d9919061333e565b611bf2565b005b6102fa60048036038101906102f5919061346b565b6122f3565b005b6103166004803603810190610311919061333e565b6123c4565b60405161032391906137f1565b60405180910390f35b6103466004803603810190610341919061333e565b61252b565b604051610353919061381b565b60405180910390f35b610376600480360381019061037191906133ff565b61254a565b005b610392600480360381019061038d919061333e565b6128c5565b60405161039f91906138e5565b60405180910390f35b6103c260048036038101906103bd919061333e565b612965565b005b6103de60048036038101906103d991906133ff565b612ef1565b6040516103eb9190613386565b60405180910390f35b6103fc612f20565b6040516104099190613916565b60405180910390f35b61042c600480360381019061042791906133ff565b612f44565b6040516104399190613386565b60405180910390f35b61045c6004803603810190610457919061333e565b612f73565b604051610469919061381b565b60405180910390f35b61048c6004803603810190610487919061346b565b612f93565b005b6001600084815260200190815260200160002060003373ffffffffffffffffffffffffffffffffffffffff1673ffffffffffffffffffffffffffffffffffffffff16815260200190815260200160002060009054906101000a900460ff168061055157506004600084815260200190815260200160002060003373ffffffffffffffffffffffffffffffffffffffff1673ffffffffffffffffffffffffffffffffffffffff16815260200190815260200160002060009054906101000a900460ff165b610590576040517f08c379a00000000000000000000000000000000000000000000000000000000081526004016105879061398e565b60405180910390fd5b6007600084815260200190815260200160002060009054906101000a900460ff166105f0576040517f08c379a00000000000000000000000000000000000000000000000000000000081526004016105e7906139fa565b60405180910390fd5b6003600084815260200190815260200160002060000160149054906101000a900460ff161561071a5760056000848152602001908152602001600020600083815260200190815260200160002060009054906101000a900460ff16156106dc573373ffffffffffffffffffffffffffffffffffffffff16837f744498049ad6a75b7f3276d52da4fb11c92417b0dc28084953e3530397226fb54285604051610699929190613a8c565b60405180910390a36040517f08c379a00000000000000000000000000000000000000000000000000000000081526004016106d390613b3a565b60405180910390fd5b600160056000858152602001908152602001600020600084815260200190815260200160002060006101000a81548160ff0219169083151502179055505b60006001600660008681526020019081526020016000208054905061073f9190613b89565b905060006040518060a001604052808381526020018581526020014281526020013373ffffffffffffffffffffffffffffffffffffffff16815260200184600481111561078f5761078e6135cd565b5b81525090506006600086815260200190815260200160002081908060018154018082558091505060019003906000526020600020906004020160009091909190915060008201518160000155602082015181600101556040820151816002015560608201518160030160006101000a81548173ffffffffffffffffffffffffffffffffffffffff021916908373ffffffffffffffffffffffffffffffffffffffff16021790555060808201518160030160146101000a81548160ff02191690836004811115610861576108606135cd565b5b02179055505050806060015173ffffffffffffffffffffffffffffffffffffffff16857ff3c9a2ef3f4ad637eafefe16715b30ad5a145b3e9e10992ced05bfacc42d06e783600001518460200151856040015186608001516040516108c99493929190613bcc565b60405180910390a35050505050565b60076020528060005260406000206000915054906101000a900460ff1681565b816001600082815260200190815260200160002060003373ffffffffffffffffffffffffffffffffffffffff1673ffffffffffffffffffffffffffffffffffffffff16815260200190815260200160002060009054906101000a900460ff16610996576040517f08c379a000000000000000000000000000000000000000000000000000000000815260040161098d90613c5d565b60405180910390fd5b600073ffffffffffffffffffffffffffffffffffffffff168273ffffffffffffffffffffffffffffffffffffffff1603610a05576040517f08c379a00000000000000000000000000000000000000000000000000000000081526004016109fc90613cc9565b60405180910390fd5b60006002600085815260200190815260200160002090508060030160009054906101000a900460ff161580610a6f575060006003811115610a4957610a486135cd565b5b8160030160019054906101000a900460ff166003811115610a6d57610a6c6135cd565b5b145b610aae576040517f08c379a0000000000000000000000000000000000000000000000000000000008152600401610aa590613d35565b60405180910390fd5b828160000160006101000a81548173ffffffffffffffffffffffffffffffffffffffff021916908373ffffffffffffffffffffffffffffffffffffffff1602179055506000816001018190555060008160030160006101000a81548160ff02191690831515021790555060038160030160016101000a81548160ff02191690836003811115610b4057610b3f6135cd565b5b021790555060005b60008086815260200190815260200160002080549050811015610c1a5760008260020160008060008981526020019081526020016000208481548110610b9157610b90613d55565b5b9060005260206000200160009054906101000a900473ffffffffffffffffffffffffffffffffffffffff1673ffffffffffffffffffffffffffffffffffffffff1673ffffffffffffffffffffffffffffffffffffffff16815260200190815260200160002060006101000a81548160ff0219169083151502179055508080600101915050610b48565b503373ffffffffffffffffffffffffffffffffffffffff16847f96db17c2572980729a77161cdacbf3d3587d0c73bfc7b36f8b6c47ebcbfbaf41600386604051610c65929190613dcc565b60405180910390a350505050565b806001600082815260200190815260200160002060003373ffffffffffffffffffffffffffffffffffffffff1673ffffffffffffffffffffffffffffffffffffffff16815260200190815260200160002060009054906101000a900460ff16610d11576040517f08c379a0000000000000000000000000000000000000000000000000000000008152600401610d0890613c5d565b60405180910390fd5b6000600260008481526020019081526020016000209050600380811115610d3b57610d3a6135cd565b5b8160030160019054906101000a900460ff166003811115610d5f57610d5e6135cd565b5b14610d9f576040517f08c379a0000000000000000000000000000000000000000000000000000000008152600401610d9690613e41565b60405180910390fd5b8060030160009054906101000a900460ff1615610df1576040517f08c379a0000000000000000000000000000000000000000000000000000000008152600401610de890613ead565b60405180910390fd5b8060020160003373ffffffffffffffffffffffffffffffffffffffff1673ffffffffffffffffffffffffffffffffffffffff16815260200190815260200160002060009054906101000a900460ff1615610e80576040517f08c379a0000000000000000000000000000000000000000000000000000000008152600401610e7790613f19565b60405180910390fd5b806001016000815480929190610e9590613f39565b919050555060018160020160003373ffffffffffffffffffffffffffffffffffffffff1673ffffffffffffffffffffffffffffffffffffffff16815260200190815260200160002060006101000a81548160ff0219169083151502179055503373ffffffffffffffffffffffffffffffffffffffff16837fc7f25af0f510713542cc0ba354c58c144649fb99c4c5c9d3c30f657866c22f648360030160019054906101000a900460ff168460000160009054906101000a900473ffffffffffffffffffffffffffffffffffffffff1685600101546000808a815260200190815260200160002080549050604051610f8f9493929190613f81565b60405180910390a3600260008085815260200190815260200160002080549050610fb99190613ff5565b816001015411156113b45760006003600085815260200190815260200160002060000160009054906101000a900473ffffffffffffffffffffffffffffffffffffffff1690508160000160009054906101000a900473ffffffffffffffffffffffffffffffffffffffff166003600086815260200190815260200160002060000160006101000a81548173ffffffffffffffffffffffffffffffffffffffff021916908373ffffffffffffffffffffffffffffffffffffffff1602179055506001600085815260200190815260200160002060008360000160009054906101000a900473ffffffffffffffffffffffffffffffffffffffff1673ffffffffffffffffffffffffffffffffffffffff1673ffffffffffffffffffffffffffffffffffffffff16815260200190815260200160002060009054906101000a900460ff1661128a57600180600086815260200190815260200160002060008460000160009054906101000a900473ffffffffffffffffffffffffffffffffffffffff1673ffffffffffffffffffffffffffffffffffffffff1673ffffffffffffffffffffffffffffffffffffffff16815260200190815260200160002060006101000a81548160ff0219169083151502179055506000808581526020019081526020016000208260000160009054906101000a900473ffffffffffffffffffffffffffffffffffffffff169080600181540180825580915050600190039060005260206000200160009091909190916101000a81548173ffffffffffffffffffffffffffffffffffffffff021916908373ffffffffffffffffffffffffffffffffffffffff1602179055508160000160009054906101000a900473ffffffffffffffffffffffffffffffffffffffff1673ffffffffffffffffffffffffffffffffffffffff16847f2ae6a113c0ed5b78a53413ffbb7679881f11145ccfba4fb92e863dfcd5a1d2f360405160405180910390a35b8160000160009054906101000a900473ffffffffffffffffffffffffffffffffffffffff1673ffffffffffffffffffffffffffffffffffffffff168173ffffffffffffffffffffffffffffffffffffffff16857f0b659dccc8eb950324170e8d9598af5ee04ee070883eb28651a96788721fbf8360405160405180910390a460018260030160006101000a81548160ff02191690831515021790555060008260030160016101000a81548160ff0219169083600381111561134e5761134d6135cd565b5b0217905550837f2ea369fdae073462e7cc8c3ac3c353d0a5bafb5e6ed61c6f7148577b4ff162bc60038460000160009054906101000a900473ffffffffffffffffffffffffffffffffffffffff166040516113aa929190613dcc565b60405180910390a2505b505050565b60006003600083815260200190815260200160002060000160149054906101000a900460ff169050919050565b816001600082815260200190815260200160002060003373ffffffffffffffffffffffffffffffffffffffff1673ffffffffffffffffffffffffffffffffffffffff16815260200190815260200160002060009054906101000a900460ff16611484576040517f08c379a000000000000000000000000000000000000000000000000000000000815260040161147b90613c5d565b60405180910390fd5b8115156007600085815260200190815260200160002060009054906101000a900460ff161515036114ea576040517f08c379a00000000000000000000000000000000000000000000000000000000081526004016114e190614098565b60405180910390fd5b816007600085815260200190815260200160002060006101000a81548160ff021916908315150217905550827f93f53daefc0e26e2efe17ab7441420f2d4d657852301d6cb9e07860ec83681bd83156040516115469190613386565b60405180910390a2505050565b816001600082815260200190815260200160002060003373ffffffffffffffffffffffffffffffffffffffff1673ffffffffffffffffffffffffffffffffffffffff16815260200190815260200160002060009054906101000a900460ff166115f1576040517f08c379a00000000000000000000000000000000000000000000000000000000081526004016115e890613c5d565b60405180910390fd5b6001600084815260200190815260200160002060008373ffffffffffffffffffffffffffffffffffffffff1673ffffffffffffffffffffffffffffffffffffffff16815260200190815260200160002060009054906101000a900460ff1661168e576040517f08c379a000000000000000000000000000000000000000000000000000000000815260040161168590614104565b60405180910390fd5b600160008085815260200190815260200160002080549050116116e6576040517f08c379a00000000000000000000000000000000000000000000000000000000081526004016116dd90614170565b60405180910390fd5b60006002600085815260200190815260200160002090508060030160009054906101000a900460ff16158061175057506000600381111561172a576117296135cd565b5b8160030160019054906101000a900460ff16600381111561174e5761174d6135cd565b5b145b61178f576040517f08c379a000000000000000000000000000000000000000000000000000000000815260040161178690613d35565b60405180910390fd5b828160000160006101000a81548173ffffffffffffffffffffffffffffffffffffffff021916908373ffffffffffffffffffffffffffffffffffffffff1602179055506000816001018190555060008160030160006101000a81548160ff02191690831515021790555060028160030160016101000a81548160ff02191690836003811115611821576118206135cd565b5b021790555060005b600080868152602001908152602001600020805490508110156118fb576000826002016000806000898152602001908152602001600020848154811061187257611871613d55565b5b9060005260206000200160009054906101000a900473ffffffffffffffffffffffffffffffffffffffff1673ffffffffffffffffffffffffffffffffffffffff1673ffffffffffffffffffffffffffffffffffffffff16815260200190815260200160002060006101000a81548160ff0219169083151502179055508080600101915050611829565b503373ffffffffffffffffffffffffffffffffffffffff16847f96db17c2572980729a77161cdacbf3d3587d0c73bfc7b36f8b6c47ebcbfbaf41600286604051611946929190613dcc565b60405180910390a350505050565b60056020528160005260406000206020528060005260406000206000915091509054906101000a900460ff1681565b60606000600660008681526020019081526020016000209050600081805490509050808511156119e8576040517f08c379a00000000000000000000000000000000000000000000000000000000081526004016119df906141dc565b60405180910390fd5b600084866119f69190613b89565b905081811115611a04578190505b6000868211611a14576000611a21565b8682611a2091906141fc565b5b90508067ffffffffffffffff811115611a3d57611a3c614230565b5b604051908082528060200260200182016040528015611a7657816020015b611a63613231565b815260200190600190039081611a5b5790505b50945060005b81811015611b9557848189611a919190613b89565b81548110611aa257611aa1613d55565b5b90600052602060002090600402016040518060a00160405290816000820154815260200160018201548152602001600282015481526020016003820160009054906101000a900473ffffffffffffffffffffffffffffffffffffffff1673ffffffffffffffffffffffffffffffffffffffff1673ffffffffffffffffffffffffffffffffffffffff1681526020016003820160149054906101000a900460ff166004811115611b5457611b536135cd565b5b6004811115611b6657611b656135cd565b5b81525050868281518110611b7d57611b7c613d55565b5b60200260200101819052508080600101915050611a7c565b50505050509392505050565b60036020528060005260406000206000915090508060000160009054906101000a900473ffffffffffffffffffffffffffffffffffffffff16908060000160149054906101000a900460ff16905082565b806001600082815260200190815260200160002060003373ffffffffffffffffffffffffffffffffffffffff1673ffffffffffffffffffffffffffffffffffffffff16815260200190815260200160002060009054906101000a900460ff16611c90576040517f08c379a0000000000000000000000000000000000000000000000000000000008152600401611c8790613c5d565b60405180910390fd5b600060026000848152602001908152602001600020905060026003811115611cbb57611cba6135cd565b5b8160030160019054906101000a900460ff166003811115611cdf57611cde6135cd565b5b14611d1f576040517f08c379a0000000000000000000000000000000000000000000000000000000008152600401611d16906142ab565b60405180910390fd5b8060030160009054906101000a900460ff1615611d71576040517f08c379a0000000000000000000000000000000000000000000000000000000008152600401611d6890613ead565b60405180910390fd5b8060020160003373ffffffffffffffffffffffffffffffffffffffff1673ffffffffffffffffffffffffffffffffffffffff16815260200190815260200160002060009054906101000a900460ff1615611e00576040517f08c379a0000000000000000000000000000000000000000000000000000000008152600401611df790613f19565b60405180910390fd5b806001016000815480929190611e1590613f39565b919050555060018160020160003373ffffffffffffffffffffffffffffffffffffffff1673ffffffffffffffffffffffffffffffffffffffff16815260200190815260200160002060006101000a81548160ff0219169083151502179055503373ffffffffffffffffffffffffffffffffffffffff16837fc7f25af0f510713542cc0ba354c58c144649fb99c4c5c9d3c30f657866c22f648360030160019054906101000a900460ff168460000160009054906101000a900473ffffffffffffffffffffffffffffffffffffffff1685600101546000808a815260200190815260200160002080549050604051611f0f9493929190613f81565b60405180910390a3600260008085815260200190815260200160002080549050611f399190613ff5565b816001015411156122ee5760006001600085815260200190815260200160002060008360000160009054906101000a900473ffffffffffffffffffffffffffffffffffffffff1673ffffffffffffffffffffffffffffffffffffffff1673ffffffffffffffffffffffffffffffffffffffff16815260200190815260200160002060006101000a81548160ff02191690831515021790555060005b600080858152602001908152602001600020805490508110156121db578160000160009054906101000a900473ffffffffffffffffffffffffffffffffffffffff1673ffffffffffffffffffffffffffffffffffffffff1660008086815260200190815260200160002082815481106120505761204f613d55565b5b9060005260206000200160009054906101000a900473ffffffffffffffffffffffffffffffffffffffff1673ffffffffffffffffffffffffffffffffffffffff16036121ce576000808581526020019081526020016000206001600080878152602001908152602001600020805490506120ca91906141fc565b815481106120db576120da613d55565b5b9060005260206000200160009054906101000a900473ffffffffffffffffffffffffffffffffffffffff16600080868152602001908152602001600020828154811061212a57612129613d55565b5b9060005260206000200160006101000a81548173ffffffffffffffffffffffffffffffffffffffff021916908373ffffffffffffffffffffffffffffffffffffffff160217905550600080858152602001908152602001600020805480612194576121936142cb565b5b6001900381819060005260206000200160006101000a81549073ffffffffffffffffffffffffffffffffffffffff021916905590556121db565b8080600101915050611fd4565b508060000160009054906101000a900473ffffffffffffffffffffffffffffffffffffffff1673ffffffffffffffffffffffffffffffffffffffff16837f155aaafb6329a2098580462df33ec4b7441b19729b9601c5fc17ae1cf99a8a5260405160405180910390a360018160030160006101000a81548160ff02191690831515021790555060008160030160016101000a81548160ff02191690836003811115612289576122886135cd565b5b0217905550827f2ea369fdae073462e7cc8c3ac3c353d0a5bafb5e6ed61c6f7148577b4ff162bc60028360000160009054906101000a900473ffffffffffffffffffffffffffffffffffffffff166040516122e5929190613dcc565b60405180910390a25b505050565b816001600082815260200190815260200160002060003373ffffffffffffffffffffffffffffffffffffffff1673ffffffffffffffffffffffffffffffffffffffff16815260200190815260200160002060009054906101000a900460ff16612391576040517f08c379a000000000000000000000000000000000000000000000000000000000815260040161238890613c5d565b60405180910390fd5b816003600085815260200190815260200160002060000160146101000a81548160ff021916908315150217905550505050565b6123cc613231565b6000600660008481526020019081526020016000208054905090506000811161242a576040517f08c379a000000000000000000000000000000000000000000000000000000000815260040161242190614346565b60405180910390fd5b6006600084815260200190815260200160002060018261244a91906141fc565b8154811061245b5761245a613d55565b5b90600052602060002090600402016040518060a00160405290816000820154815260200160018201548152602001600282015481526020016003820160009054906101000a900473ffffffffffffffffffffffffffffffffffffffff1673ffffffffffffffffffffffffffffffffffffffff1673ffffffffffffffffffffffffffffffffffffffff1681526020016003820160149054906101000a900460ff16600481111561250d5761250c6135cd565b5b600481111561251f5761251e6135cd565b5b81525050915050919050565b6000806000838152602001908152602001600020805490509050919050565b816001600082815260200190815260200160002060003373ffffffffffffffffffffffffffffffffffffffff1673ffffffffffffffffffffffffffffffffffffffff16815260200190815260200160002060009054906101000a900460ff166125e8576040517f08c379a00000000000000000000000000000000000000000000000000000000081526004016125df90613c5d565b60405180910390fd5b600073ffffffffffffffffffffffffffffffffffffffff168273ffffffffffffffffffffffffffffffffffffffff1603612657576040517f08c379a000000000000000000000000000000000000000000000000000000000815260040161264e90613cc9565b60405180910390fd5b60006002600085815260200190815260200160002090508060030160009054906101000a900460ff1615806126c157506000600381111561269b5761269a6135cd565b5b8160030160019054906101000a900460ff1660038111156126bf576126be6135cd565b5b145b612700576040517f08c379a00000000000000000000000000000000000000000000000000000000081526004016126f790613d35565b60405180910390fd5b828160000160006101000a81548173ffffffffffffffffffffffffffffffffffffffff021916908373ffffffffffffffffffffffffffffffffffffffff1602179055506000816001018190555060008160030160006101000a81548160ff02191690831515021790555060018160030160016101000a81548160ff02191690836003811115612792576127916135cd565b5b021790555060005b6000808681526020019081526020016000208054905081101561286c57600082600201600080600089815260200190815260200160002084815481106127e3576127e2613d55565b5b9060005260206000200160009054906101000a900473ffffffffffffffffffffffffffffffffffffffff1673ffffffffffffffffffffffffffffffffffffffff1673ffffffffffffffffffffffffffffffffffffffff16815260200190815260200160002060006101000a81548160ff021916908315150217905550808060010191505061279a565b503373ffffffffffffffffffffffffffffffffffffffff16847f96db17c2572980729a77161cdacbf3d3587d0c73bfc7b36f8b6c47ebcbfbaf416001866040516128b7929190613dcc565b60405180910390a350505050565b606060008083815260200190815260200160002080548060200260200160405190810160405280929190818152602001828054801561295957602002820191906000526020600020905b8160009054906101000a900473ffffffffffffffffffffffffffffffffffffffff1673ffffffffffffffffffffffffffffffffffffffff168152602001906001019080831161290f575b50505050509050919050565b806001600082815260200190815260200160002060003373ffffffffffffffffffffffffffffffffffffffff1673ffffffffffffffffffffffffffffffffffffffff16815260200190815260200160002060009054906101000a900460ff16612a03576040517f08c379a00000000000000000000000000000000000000000000000000000000081526004016129fa90613c5d565b60405180910390fd5b600060026000848152602001908152602001600020905060016003811115612a2e57612a2d6135cd565b5b8160030160019054906101000a900460ff166003811115612a5257612a516135cd565b5b14612a92576040517f08c379a0000000000000000000000000000000000000000000000000000000008152600401612a89906143b2565b60405180910390fd5b8060030160009054906101000a900460ff1615612ae4576040517f08c379a0000000000000000000000000000000000000000000000000000000008152600401612adb90613ead565b60405180910390fd5b8060020160003373ffffffffffffffffffffffffffffffffffffffff1673ffffffffffffffffffffffffffffffffffffffff16815260200190815260200160002060009054906101000a900460ff1615612b73576040517f08c379a0000000000000000000000000000000000000000000000000000000008152600401612b6a90613f19565b60405180910390fd5b806001016000815480929190612b8890613f39565b919050555060018160020160003373ffffffffffffffffffffffffffffffffffffffff1673ffffffffffffffffffffffffffffffffffffffff16815260200190815260200160002060006101000a81548160ff0219169083151502179055503373ffffffffffffffffffffffffffffffffffffffff16837fc7f25af0f510713542cc0ba354c58c144649fb99c4c5c9d3c30f657866c22f648360030160019054906101000a900460ff168460000160009054906101000a900473ffffffffffffffffffffffffffffffffffffffff1685600101546000808a815260200190815260200160002080549050604051612c829493929190613f81565b60405180910390a3600260008085815260200190815260200160002080549050612cac9190613ff5565b81600101541115612eec57600180600085815260200190815260200160002060008360000160009054906101000a900473ffffffffffffffffffffffffffffffffffffffff1673ffffffffffffffffffffffffffffffffffffffff1673ffffffffffffffffffffffffffffffffffffffff16815260200190815260200160002060006101000a81548160ff0219169083151502179055506000808481526020019081526020016000208160000160009054906101000a900473ffffffffffffffffffffffffffffffffffffffff169080600181540180825580915050600190039060005260206000200160009091909190916101000a81548173ffffffffffffffffffffffffffffffffffffffff021916908373ffffffffffffffffffffffffffffffffffffffff1602179055508060000160009054906101000a900473ffffffffffffffffffffffffffffffffffffffff1673ffffffffffffffffffffffffffffffffffffffff16837f2ae6a113c0ed5b78a53413ffbb7679881f11145ccfba4fb92e863dfcd5a1d2f360405160405180910390a360018160030160006101000a81548160ff02191690831515021790555060008160030160016101000a81548160ff02191690836003811115612e8757612e866135cd565b5b0217905550827f2ea369fdae073462e7cc8c3ac3c353d0a5bafb5e6ed61c6f7148577b4ff162bc60018360000160009054906101000a900473ffffffffffffffffffffffffffffffffffffffff16604051612ee3929190613dcc565b60405180910390a25b505050565b60046020528160005260406000206020528060005260406000206000915091509054906101000a900460ff1681565b7f523a704056dcd17bcf83bed8b68c59416dac1119be77755efe3bde0a64e46e0c81565b60016020528160005260406000206020528060005260406000206000915091509054906101000a900460ff1681565b600060066000838152602001908152602001600020805490509050919050565b600073ffffffffffffffffffffffffffffffffffffffff166003600084815260200190815260200160002060000160009054906101000a900473ffffffffffffffffffffffffffffffffffffffff1673ffffffffffffffffffffffffffffffffffffffff1614613038576040517f08c379a000000000000000000000000000000000000000000000000000000000815260040161302f9061441e565b60405180910390fd5b60405180604001604052803373ffffffffffffffffffffffffffffffffffffffff1681526020018215158152506003600084815260200190815260200160002060008201518160000160006101000a81548173ffffffffffffffffffffffffffffffffffffffff021916908373ffffffffffffffffffffffffffffffffffffffff16021790555060208201518160000160146101000a81548160ff021916908315150217905550905050600080838152602001908152602001600020339080600181540180825580915050600190039060005260206000200160009091909190916101000a81548173ffffffffffffffffffffffffffffffffffffffff021916908373ffffffffffffffffffffffffffffffffffffffff160217905550600180600084815260200190815260200160002060003373ffffffffffffffffffffffffffffffffffffffff1673ffffffffffffffffffffffffffffffffffffffff16815260200190815260200160002060006101000a81548160ff02191690831515021790555060016007600084815260200190815260200160002060006101000a81548160ff0219169083151502179055503373ffffffffffffffffffffffffffffffffffffffff16827f2ae6a113c0ed5b78a53413ffbb7679881f11145ccfba4fb92e863dfcd5a1d2f360405160405180910390a35050565b6040518060a00160405280600081526020016000801916815260200160008152602001600073ffffffffffffffffffffffffffffffffffffffff16815260200160006004811115613285576132846135cd565b5b81525090565b600080fd5b6000819050919050565b6132a381613290565b81146132ae57600080fd5b50565b6000813590506132c08161329a565b92915050565b600581106132d357600080fd5b50565b6000813590506132e5816132c6565b92915050565b6000806000606084860312156133045761330361328b565b5b6000613312868287016132b1565b9350506020613323868287016132b1565b9250506040613334868287016132d6565b9150509250925092565b6000602082840312156133545761335361328b565b5b6000613362848285016132b1565b91505092915050565b60008115159050919050565b6133808161336b565b82525050565b600060208201905061339b6000830184613377565b92915050565b600073ffffffffffffffffffffffffffffffffffffffff82169050919050565b60006133cc826133a1565b9050919050565b6133dc816133c1565b81146133e757600080fd5b50565b6000813590506133f9816133d3565b92915050565b600080604083850312156134165761341561328b565b5b6000613424858286016132b1565b9250506020613435858286016133ea565b9150509250929050565b6134488161336b565b811461345357600080fd5b50565b6000813590506134658161343f565b92915050565b600080604083850312156134825761348161328b565b5b6000613490858286016132b1565b92505060206134a185828601613456565b9150509250929050565b600080604083850312156134c2576134c161328b565b5b60006134d0858286016132b1565b92505060206134e1858286016132b1565b9150509250929050565b6000819050919050565b6134fe816134eb565b811461350957600080fd5b50565b60008135905061351b816134f5565b92915050565b60008060006060848603121561353a5761353961328b565b5b6000613548868287016132b1565b93505060206135598682870161350c565b925050604061356a8682870161350c565b9150509250925092565b600081519050919050565b600082825260208201905092915050565b6000819050602082019050919050565b6135a9816134eb565b82525050565b6135b881613290565b82525050565b6135c7816133c1565b82525050565b7f4e487b7100000000000000000000000000000000000000000000000000000000600052602160045260246000fd5b6005811061360d5761360c6135cd565b5b50565b600081905061361e826135fc565b919050565b600061362e82613610565b9050919050565b61363e81613623565b82525050565b60a08201600082015161365a60008501826135a0565b50602082015161366d60208501826135af565b50604082015161368060408501826135a0565b50606082015161369360608501826135be565b5060808201516136a66080850182613635565b50505050565b60006136b88383613644565b60a08301905092915050565b6000602082019050919050565b60006136dc82613574565b6136e6818561357f565b93506136f183613590565b8060005b8381101561372257815161370988826136ac565b9750613714836136c4565b9250506001810190506136f5565b5085935050505092915050565b6000602082019050818103600083015261374981846136d1565b905092915050565b61375a816133c1565b82525050565b60006040820190506137756000830185613751565b6137826020830184613377565b9392505050565b60a08201600082015161379f60008501826135a0565b5060208201516137b260208501826135af565b5060408201516137c560408501826135a0565b5060608201516137d860608501826135be565b5060808201516137eb6080850182613635565b50505050565b600060a0820190506138066000830184613789565b92915050565b613815816134eb565b82525050565b6000602082019050613830600083018461380c565b92915050565b600081519050919050565b600082825260208201905092915050565b6000819050602082019050919050565b600061386e83836135be565b60208301905092915050565b6000602082019050919050565b600061389282613836565b61389c8185613841565b93506138a783613852565b8060005b838110156138d85781516138bf8882613862565b97506138ca8361387a565b9250506001810190506138ab565b5085935050505092915050565b600060208201905081810360008301526138ff8184613887565b905092915050565b61391081613290565b82525050565b600060208201905061392b6000830184613907565b92915050565b600082825260208201905092915050565b7f4e6f7420617574686f72697a656420746f207265676973746572000000000000600082015250565b6000613978601a83613931565b915061398382613942565b602082019050919050565b600060208201905081810360008301526139a78161396b565b9050919050565b7f5265736f757263652069732061726368697665642f696e616374697665000000600082015250565b60006139e4601d83613931565b91506139ef826139ae565b602082019050919050565b60006020820190508181036000830152613a13816139d7565b9050919050565b7f4475706c696361746520646174614861736820666f722074686973207265736f60008201527f7572636500000000000000000000000000000000000000000000000000000000602082015250565b6000613a76602483613931565b9150613a8182613a1a565b604082019050919050565b6000606082019050613aa1600083018561380c565b613aae6020830184613907565b8181036040830152613abf81613a69565b90509392505050565b7f4475706c6963617465206461746148617368206e6f7420616c6c6f776564206660008201527f6f722074686973207265736f7572636500000000000000000000000000000000602082015250565b6000613b24603083613931565b9150613b2f82613ac8565b604082019050919050565b60006020820190508181036000830152613b5381613b17565b9050919050565b7f4e487b7100000000000000000000000000000000000000000000000000000000600052601160045260246000fd5b6000613b94826134eb565b9150613b9f836134eb565b9250828201905080821115613bb757613bb6613b5a565b5b92915050565b613bc681613623565b82525050565b6000608082019050613be1600083018761380c565b613bee6020830186613907565b613bfb604083018561380c565b613c086060830184613bbd565b95945050505050565b7f4e6f7420616e2061646d696e20666f722074686973207265736f757263650000600082015250565b6000613c47601e83613931565b9150613c5282613c11565b602082019050919050565b60006020820190508181036000830152613c7681613c3a565b9050919050565b7f5a65726f20616464726573730000000000000000000000000000000000000000600082015250565b6000613cb3600c83613931565b9150613cbe82613c7d565b602082019050919050565b60006020820190508181036000830152613ce281613ca6565b9050919050565b7f4163746976652070726f706f73616c2065786973747300000000000000000000600082015250565b6000613d1f601683613931565b9150613d2a82613ce9565b602082019050919050565b60006020820190508181036000830152613d4e81613d12565b9050919050565b7f4e487b7100000000000000000000000000000000000000000000000000000000600052603260045260246000fd5b60048110613d9557613d946135cd565b5b50565b6000819050613da682613d84565b919050565b6000613db682613d98565b9050919050565b613dc681613dab565b82525050565b6000604082019050613de16000830185613dbd565b613dee6020830184613751565b9392505050565b7f4e6f207472616e73666572206f776e6572736869702070726f706f73616c0000600082015250565b6000613e2b601e83613931565b9150613e3682613df5565b602082019050919050565b60006020820190508181036000830152613e5a81613e1e565b9050919050565b7f416c726561647920657865637574656400000000000000000000000000000000600082015250565b6000613e97601083613931565b9150613ea282613e61565b602082019050919050565b60006020820190508181036000830152613ec681613e8a565b9050919050565b7f416c726561647920617070726f76656400000000000000000000000000000000600082015250565b6000613f03601083613931565b9150613f0e82613ecd565b602082019050919050565b60006020820190508181036000830152613f3281613ef6565b9050919050565b6000613f44826134eb565b91507fffffffffffffffffffffffffffffffffffffffffffffffffffffffffffffffff8203613f7657613f75613b5a565b5b600182019050919050565b6000608082019050613f966000830187613dbd565b613fa36020830186613751565b613fb0604083018561380c565b613fbd606083018461380c565b95945050505050565b7f4e487b7100000000000000000000000000000000000000000000000000000000600052601260045260246000fd5b6000614000826134eb565b915061400b836134eb565b92508261401b5761401a613fc6565b5b828204905092915050565b7f5265736f7572636520616c726561647920696e2064657369726564207374617460008201527f6500000000000000000000000000000000000000000000000000000000000000602082015250565b6000614082602183613931565b915061408d82614026565b604082019050919050565b600060208201905081810360008301526140b181614075565b9050919050565b7f4e6f7420616e2061646d696e0000000000000000000000000000000000000000600082015250565b60006140ee600c83613931565b91506140f9826140b8565b602082019050919050565b6000602082019050818103600083015261411d816140e1565b9050919050565b7f43616e6e6f742072656d6f7665206c6173742061646d696e0000000000000000600082015250565b600061415a601883613931565b915061416582614124565b602082019050919050565b600060208201905081810360008301526141898161414d565b9050919050565b7f5374617274206f7574206f662072616e67650000000000000000000000000000600082015250565b60006141c6601283613931565b91506141d182614190565b602082019050919050565b600060208201905081810360008301526141f5816141b9565b9050919050565b6000614207826134eb565b9150614212836134eb565b925082820390508181111561422a57614229613b5a565b5b92915050565b7f4e487b7100000000000000000000000000000000000000000000000000000000600052604160045260246000fd5b7f4e6f2072656d6f76652061646d696e2070726f706f73616c0000000000000000600082015250565b6000614295601883613931565b91506142a08261425f565b602082019050919050565b600060208201905081810360008301526142c481614288565b9050919050565b7f4e487b7100000000000000000000000000000000000000000000000000000000600052603160045260246000fd5b7f4e6f206368616e676573207265636f7264656400000000000000000000000000600082015250565b6000614330601383613931565b915061433b826142fa565b602082019050919050565b6000602082019050818103600083015261435f81614323565b9050919050565b7f4e6f206164642061646d696e2070726f706f73616c0000000000000000000000600082015250565b600061439c601583613931565b91506143a782614366565b602082019050919050565b600060208201905081810360008301526143cb8161438f565b9050919050565b7f5265736f7572636520616c726561647920657869737473000000000000000000600082015250565b6000614408601783613931565b9150614413826143d2565b602082019050919050565b60006020820190508181036000830152614437816143fb565b905091905056fea2646970667358221220c048f0f59247295b282268cbf4b29278d0ab7288b15006b0289d0f6b1646c1ff64736f6c634300081c0033",
  "linkReferences": {},
  "deployedLinkReferences": {}
}